{
  "address": "0xdF05027A9345a9c608e29b46425BC4307a70C50c",
  "abi": [
    {
      "inputs": [
        {
          "internalType": "address",
          "name": "_landRegistry",
          "type": "address"
        }
      ],
      "stateMutability": "nonpayable",
      "type": "constructor"
    },
    {
      "anonymous": false,
      "inputs": [
        {
          "indexed": true,
          "internalType": "address",
          "name": "owner",
          "type": "address"
        },
        {
          "indexed": true,
          "internalType": "address",
          "name": "approved",
          "type": "address"
        },
        {
          "indexed": true,
          "internalType": "uint256",
          "name": "tokenId",
          "type": "uint256"
        }
      ],
      "name": "Approval",
      "type": "event"
    },
    {
      "anonymous": false,
      "inputs": [
        {
          "indexed": true,
          "internalType": "address",
          "name": "owner",
          "type": "address"
        },
        {
          "indexed": true,
          "internalType": "address",
          "name": "operator",
          "type": "address"
        },
        {
          "indexed": false,
          "internalType": "bool",
          "name": "approved",
          "type": "bool"
        }
      ],
      "name": "ApprovalForAll",
      "type": "event"
    },
    {
      "anonymous": false,
      "inputs": [
        {
          "indexed": false,
          "internalType": "uint256",
          "name": "_fromTokenId",
          "type": "uint256"
        },
        {
          "indexed": false,
          "internalType": "uint256",
          "name": "_toTokenId",
          "type": "uint256"
        }
      ],
      "name": "BatchMetadataUpdate",
      "type": "event"
    },
    {
      "anonymous": false,
      "inputs": [
        {
          "indexed": true,
          "internalType": "uint256",
          "name": "tokenId",
          "type": "uint256"
        },
        {
          "indexed": false,
          "internalType": "enum LandNFT.TokenType",
          "name": "tokenType",
          "type": "uint8"
        },
        {
          "indexed": false,
          "internalType": "string",
          "name": "thramNumber",
          "type": "string"
        },
        {
          "indexed": false,
          "internalType": "string",
          "name": "plotNumber",
          "type": "string"
        },
        {
          "indexed": false,
          "internalType": "uint256",
          "name": "acres",
          "type": "uint256"
        },
        {
          "indexed": false,
          "internalType": "uint256",
          "name": "decimals",
          "type": "uint256"
        },
        {
          "indexed": false,
          "internalType": "address[]",
          "name": "owners",
          "type": "address[]"
        }
      ],
      "name": "LandTokenized",
      "type": "event"
    },
    {
      "anonymous": false,
      "inputs": [
        {
          "indexed": false,
          "internalType": "uint256",
          "name": "_tokenId",
          "type": "uint256"
        }
      ],
      "name": "MetadataUpdate",
      "type": "event"
    },
    {
      "anonymous": false,
      "inputs": [
        {
          "indexed": true,
          "internalType": "address",
          "name": "previousOwner",
          "type": "address"
        },
        {
          "indexed": true,
          "internalType": "address",
          "name": "newOwner",
          "type": "address"
        }
      ],
      "name": "OwnershipTransferred",
      "type": "event"
    },
    {
      "anonymous": false,
      "inputs": [
        {
          "indexed": true,
          "internalType": "address",
          "name": "from",
          "type": "address"
        },
        {
          "indexed": true,
          "internalType": "address",
          "name": "to",
          "type": "address"
        },
        {
          "indexed": true,
          "internalType": "uint256",
          "name": "tokenId",
          "type": "uint256"
        }
      ],
      "name": "Transfer",
      "type": "event"
    },
    {
      "inputs": [
        {
          "internalType": "uint256",
          "name": "tokenId",
          "type": "uint256"
        },
        {
          "internalType": "address",
          "name": "newOwner",
          "type": "address"
        }
      ],
      "name": "addJointOwner",
      "outputs": [],
      "stateMutability": "nonpayable",
      "type": "function"
    },
    {
      "inputs": [
        {
          "internalType": "address",
          "name": "to",
          "type": "address"
        },
        {
          "internalType": "uint256",
          "name": "tokenId",
          "type": "uint256"
        }
      ],
      "name": "approve",
      "outputs": [],
      "stateMutability": "nonpayable",
      "type": "function"
    },
    {
      "inputs": [
        {
          "internalType": "address",
          "name": "owner",
          "type": "address"
        }
      ],
      "name": "balanceOf",
      "outputs": [
        {
          "internalType": "uint256",
          "name": "",
          "type": "uint256"
        }
      ],
      "stateMutability": "view",
      "type": "function"
    },
    {
      "inputs": [
        {
          "internalType": "uint256",
          "name": "tokenId",
          "type": "uint256"
        }
      ],
      "name": "getApproved",
      "outputs": [
        {
          "internalType": "address",
          "name": "",
          "type": "address"
        }
      ],
      "stateMutability": "view",
      "type": "function"
    },
    {
      "inputs": [
        {
          "internalType": "string",
          "name": "_plotNumber",
          "type": "string"
        }
      ],
      "name": "getTokensByPlot",
      "outputs": [
        {
          "components": [
            {
              "internalType": "uint256",
              "name": "tokenId",
              "type": "uint256"
            },
            {
              "internalType": "enum LandNFT.TokenType",
              "name": "tokenType",
              "type": "uint8"
            },
            {
              "internalType": "string",
              "name": "thramNumber",
              "type": "string"
            },
            {
              "internalType": "string",
              "name": "plotNumber",
              "type": "string"
            },
            {
              "internalType": "uint256",
              "name": "acres",
              "type": "uint256"
            },
            {
              "internalType": "uint256",
              "name": "decimals",
              "type": "uint256"
            },
            {
              "internalType": "address[]",
              "name": "owners",
              "type": "address[]"
            },
            {
              "internalType": "uint256",
              "name": "creationTime",
              "type": "uint256"
            }
          ],
          "internalType": "struct LandNFT.LandToken[]",
          "name": "",
          "type": "tuple[]"
        }
      ],
      "stateMutability": "view",
      "type": "function"
    },
    {
      "inputs": [
        {
          "internalType": "string",
          "name": "_thramNumber",
          "type": "string"
        }
      ],
      "name": "getTokensByThram",
      "outputs": [
        {
          "components": [
            {
              "internalType": "uint256",
              "name": "tokenId",
              "type": "uint256"
            },
            {
              "internalType": "enum LandNFT.TokenType",
              "name": "tokenType",
              "type": "uint8"
            },
            {
              "internalType": "string",
              "name": "thramNumber",
              "type": "string"
            },
            {
              "internalType": "string",
              "name": "plotNumber",
              "type": "string"
            },
            {
              "internalType": "uint256",
              "name": "acres",
              "type": "uint256"
            },
            {
              "internalType": "uint256",
              "name": "decimals",
              "type": "uint256"
            },
            {
              "internalType": "address[]",
              "name": "owners",
              "type": "address[]"
            },
            {
              "internalType": "uint256",
              "name": "creationTime",
              "type": "uint256"
            }
          ],
          "internalType": "struct LandNFT.LandToken[]",
          "name": "",
          "type": "tuple[]"
        }
      ],
      "stateMutability": "view",
      "type": "function"
    },
    {
      "inputs": [
        {
          "internalType": "address",
          "name": "owner",
          "type": "address"
        },
        {
          "internalType": "address",
          "name": "operator",
          "type": "address"
        }
      ],
      "name": "isApprovedForAll",
      "outputs": [
        {
          "internalType": "bool",
          "name": "",
          "type": "bool"
        }
      ],
      "stateMutability": "view",
      "type": "function"
    },
    {
      "inputs": [],
      "name": "landRegistry",
      "outputs": [
        {
          "internalType": "contract LandRegistry",
          "name": "",
          "type": "address"
        }
      ],
      "stateMutability": "view",
      "type": "function"
    },
    {
      "inputs": [
        {
          "internalType": "uint256",
          "name": "",
          "type": "uint256"
        }
      ],
      "name": "landTokens",
      "outputs": [
        {
          "internalType": "uint256",
          "name": "tokenId",
          "type": "uint256"
        },
        {
          "internalType": "enum LandNFT.TokenType",
          "name": "tokenType",
          "type": "uint8"
        },
        {
          "internalType": "string",
          "name": "thramNumber",
          "type": "string"
        },
        {
          "internalType": "string",
          "name": "plotNumber",
          "type": "string"
        },
        {
          "internalType": "uint256",
          "name": "acres",
          "type": "uint256"
        },
        {
          "internalType": "uint256",
          "name": "decimals",
          "type": "uint256"
        },
        {
          "internalType": "uint256",
          "name": "creationTime",
          "type": "uint256"
        }
      ],
      "stateMutability": "view",
      "type": "function"
    },
    {
      "inputs": [
        {
          "internalType": "string",
          "name": "_plotNumber",
          "type": "string"
        },
        {
          "internalType": "uint256",
          "name": "_acres",
          "type": "uint256"
        },
        {
          "internalType": "uint256",
          "name": "_decimals",
          "type": "uint256"
        },
        {
          "internalType": "address[]",
          "name": "_owners",
          "type": "address[]"
        }
      ],
      "name": "mintFractionToken",
      "outputs": [],
      "stateMutability": "nonpayable",
      "type": "function"
    },
    {
      "inputs": [
        {
          "internalType": "string",
          "name": "_plotNumber",
          "type": "string"
        },
        {
          "internalType": "address[]",
          "name": "_owners",
          "type": "address[]"
        }
      ],
      "name": "mintPlotToken",
      "outputs": [],
      "stateMutability": "nonpayable",
      "type": "function"
    },
    {
      "inputs": [
        {
          "internalType": "string",
          "name": "_thramNumber",
          "type": "string"
        },
        {
          "internalType": "address[]",
          "name": "_owners",
          "type": "address[]"
        }
      ],
      "name": "mintThramToken",
      "outputs": [],
      "stateMutability": "nonpayable",
      "type": "function"
    },
    {
      "inputs": [],
      "name": "name",
      "outputs": [
        {
          "internalType": "string",
          "name": "",
          "type": "string"
        }
      ],
      "stateMutability": "view",
      "type": "function"
    },
    {
      "inputs": [],
      "name": "owner",
      "outputs": [
        {
          "internalType": "address",
          "name": "",
          "type": "address"
        }
      ],
      "stateMutability": "view",
      "type": "function"
    },
    {
      "inputs": [
        {
          "internalType": "uint256",
          "name": "tokenId",
          "type": "uint256"
        }
      ],
      "name": "ownerOf",
      "outputs": [
        {
          "internalType": "address",
          "name": "",
          "type": "address"
        }
      ],
      "stateMutability": "view",
      "type": "function"
    },
    {
      "inputs": [],
      "name": "renounceOwnership",
      "outputs": [],
      "stateMutability": "nonpayable",
      "type": "function"
    },
    {
      "inputs": [
        {
          "internalType": "address",
          "name": "from",
          "type": "address"
        },
        {
          "internalType": "address",
          "name": "to",
          "type": "address"
        },
        {
          "internalType": "uint256",
          "name": "tokenId",
          "type": "uint256"
        }
      ],
      "name": "safeTransferFrom",
      "outputs": [],
      "stateMutability": "nonpayable",
      "type": "function"
    },
    {
      "inputs": [
        {
          "internalType": "address",
          "name": "from",
          "type": "address"
        },
        {
          "internalType": "address",
          "name": "to",
          "type": "address"
        },
        {
          "internalType": "uint256",
          "name": "tokenId",
          "type": "uint256"
        },
        {
          "internalType": "bytes",
          "name": "data",
          "type": "bytes"
        }
      ],
      "name": "safeTransferFrom",
      "outputs": [],
      "stateMutability": "nonpayable",
      "type": "function"
    },
    {
      "inputs": [
        {
          "internalType": "address",
          "name": "operator",
          "type": "address"
        },
        {
          "internalType": "bool",
          "name": "approved",
          "type": "bool"
        }
      ],
      "name": "setApprovalForAll",
      "outputs": [],
      "stateMutability": "nonpayable",
      "type": "function"
    },
    {
      "inputs": [
        {
          "internalType": "bytes4",
          "name": "interfaceId",
          "type": "bytes4"
        }
      ],
      "name": "supportsInterface",
      "outputs": [
        {
          "internalType": "bool",
          "name": "",
          "type": "bool"
        }
      ],
      "stateMutability": "view",
      "type": "function"
    },
    {
      "inputs": [],
      "name": "symbol",
      "outputs": [
        {
          "internalType": "string",
          "name": "",
          "type": "string"
        }
      ],
      "stateMutability": "view",
      "type": "function"
    },
    {
      "inputs": [
        {
          "internalType": "string",
          "name": "",
          "type": "string"
        },
        {
          "internalType": "uint256",
          "name": "",
          "type": "uint256"
        }
      ],
      "name": "tokenIdsByPlot",
      "outputs": [
        {
          "internalType": "uint256",
          "name": "",
          "type": "uint256"
        }
      ],
      "stateMutability": "view",
      "type": "function"
    },
    {
      "inputs": [
        {
          "internalType": "string",
          "name": "",
          "type": "string"
        },
        {
          "internalType": "uint256",
          "name": "",
          "type": "uint256"
        }
      ],
      "name": "tokenIdsByThram",
      "outputs": [
        {
          "internalType": "uint256",
          "name": "",
          "type": "uint256"
        }
      ],
      "stateMutability": "view",
      "type": "function"
    },
    {
      "inputs": [
        {
          "internalType": "uint256",
          "name": "tokenId",
          "type": "uint256"
        }
      ],
      "name": "tokenURI",
      "outputs": [
        {
          "internalType": "string",
          "name": "",
          "type": "string"
        }
      ],
      "stateMutability": "view",
      "type": "function"
    },
    {
      "inputs": [
        {
          "internalType": "address",
          "name": "from",
          "type": "address"
        },
        {
          "internalType": "address",
          "name": "to",
          "type": "address"
        },
        {
          "internalType": "uint256",
          "name": "tokenId",
          "type": "uint256"
        }
      ],
      "name": "transferFrom",
      "outputs": [],
      "stateMutability": "nonpayable",
      "type": "function"
    },
    {
      "inputs": [
        {
          "internalType": "address",
          "name": "newOwner",
          "type": "address"
        }
      ],
      "name": "transferOwnership",
      "outputs": [],
      "stateMutability": "nonpayable",
      "type": "function"
    }
  ],
  "transactionHash": "0x743d7fb4d027d6191fe3a6fcc7012e7677c5f9eb98bf377db10d8a248b17c31f",
  "args": [
    "0x132CdfA6c95E84B028D55476d997eFe78dc9A728"
  ],
  "numDeployments": 1,
  "solcInputHash": "cfb8f0f0407e8de500720a6f30b62151",
  "bytecode": "0x60806040523480156200001157600080fd5b506040516200321b3803806200321b83398101604081905262000034916200012a565b6040518060400160405280600781526020016613185b9913919560ca1b815250604051806040016040528060048152602001631313919560e21b815250816000908162000082919062000201565b50600162000091828262000201565b505050620000ae620000a8620000d460201b60201c565b620000d8565b600980546001600160a01b0319166001600160a01b0392909216919091179055620002cd565b3390565b600780546001600160a01b038381166001600160a01b0319831681179093556040519116919082907f8be0079c531659141344cd1fd0a4f28419497f9722a3daafe3b4186f6b6457e090600090a35050565b6000602082840312156200013d57600080fd5b81516001600160a01b03811681146200015557600080fd5b9392505050565b634e487b7160e01b600052604160045260246000fd5b600181811c908216806200018757607f821691505b602082108103620001a857634e487b7160e01b600052602260045260246000fd5b50919050565b601f821115620001fc57600081815260208120601f850160051c81016020861015620001d75750805b601f850160051c820191505b81811015620001f857828155600101620001e3565b5050505b505050565b81516001600160401b038111156200021d576200021d6200015c565b62000235816200022e845462000172565b84620001ae565b602080601f8311600181146200026d5760008415620002545750858301515b600019600386901b1c1916600185901b178555620001f8565b600085815260208120601f198616915b828110156200029e578886015182559484019460019091019084016200027d565b5085821015620002bd5787850151600019600388901b60f8161c191681555b5050505050600190811b01905550565b612f3e80620002dd6000396000f3fe608060405234801561001057600080fd5b506004361061018d5760003560e01c8063715018a6116100de578063bd4dc02411610097578063c87b56dd11610071578063c87b56dd1461037b578063e985e9c51461038e578063f1ab8759146103ca578063f2fde38b146103dd57600080fd5b8063bd4dc02414610342578063c03521ad14610355578063c11f97271461036857600080fd5b8063715018a6146102e85780638da5cb5b146102f057806395d89b4114610301578063a22cb46514610309578063b775a3be1461031c578063b88d4fde1461032f57600080fd5b806323b872dd1161014b57806342842e0e1161012557806342842e0e1461028e5780635c7c430f146102a15780636352211e146102c257806370a08231146102d557600080fd5b806323b872dd1461023557806330ccd17a1461024857806340f884391461026e57600080fd5b806296e2821461019257806301ffc9a7146101a757806306fdde03146101cf578063081812fc146101e4578063095ea7b31461020f57806322f3a4c314610222575b600080fd5b6101a56101a03660046123d4565b6103f0565b005b6101ba6101b536600461244d565b610588565b60405190151581526020015b60405180910390f35b6101d7610599565b6040516101c691906124ba565b6101f76101f23660046124cd565b61062b565b6040516001600160a01b0390911681526020016101c6565b6101a561021d3660046124e6565b610652565b6101a5610230366004612512565b610767565b6101a5610243366004612588565b6109ad565b61025b6102563660046124cd565b6109de565b6040516101c69796959493929190612601565b61028161027c366004612659565b610b2d565b6040516101c691906126d1565b6101a561029c366004612588565b610e54565b6102b46102af3660046127b3565b610e6f565b6040519081526020016101c6565b6101f76102d03660046124cd565b610eaf565b6102b46102e33660046127f7565b610f0f565b6101a5610f95565b6007546001600160a01b03166101f7565b6101d7610fa9565b6101a5610317366004612822565b610fb8565b6101a561032a36600461285b565b610fc7565b6101a561033d366004612880565b61105f565b6009546101f7906001600160a01b031681565b6101a56103633660046123d4565b611097565b6102b46103763660046127b3565b6111f2565b6101d76103893660046124cd565b61121d565b6101ba61039c3660046128f3565b6001600160a01b03918216600090815260056020908152604080832093909416825291909152205460ff1690565b6102816103d8366004612659565b611228565b6101a56103eb3660046127f7565b611547565b6103f86115c0565b600954604051633d54160f60e21b81526000916001600160a01b03169063f550583c906104299086906004016124ba565b600060405180830381865afa158015610446573d6000803e3d6000fd5b505050506040513d6000823e601f3d908101601f1916820160405261046e9190810190612a93565b905060008151116104c65760405162461bcd60e51b815260206004820152601f60248201527f4e6f2070617263656c7320666f756e6420666f72207468697320746872616d0060448201526064015b60405180910390fd5b6104d4600880546001019055565b60006104df60085490565b9050600060405180610100016040528083815260200160006002811115610508576105086125c9565b8152602001868152602001604051806020016040528060008152508152602001600081526020016000815260200185815260200142815250905061054d82828661161a565b600b8560405161055d9190612b43565b9081526040516020918190038201902080546001810182556000918252919020019190915550505050565b600061059382611742565b92915050565b6060600080546105a890612b5f565b80601f01602080910402602001604051908101604052809291908181526020018280546105d490612b5f565b80156106215780601f106105f657610100808354040283529160200191610621565b820191906000526020600020905b81548152906001019060200180831161060457829003601f168201915b5050505050905090565b600061063682611767565b506000908152600460205260409020546001600160a01b031690565b600061065d82610eaf565b9050806001600160a01b0316836001600160a01b0316036106ca5760405162461bcd60e51b815260206004820152602160248201527f4552433732313a20617070726f76616c20746f2063757272656e74206f776e656044820152603960f91b60648201526084016104bd565b336001600160a01b03821614806106e657506106e6813361039c565b6107585760405162461bcd60e51b815260206004820152603d60248201527f4552433732313a20617070726f76652063616c6c6572206973206e6f7420746f60448201527f6b656e206f776e6572206f7220617070726f76656420666f7220616c6c00000060648201526084016104bd565b61076283836117c6565b505050565b61076f6115c0565b600954604051634d0960fd60e11b81526000916001600160a01b031690639a12c1fa906107a09088906004016124ba565b600060405180830381865afa1580156107bd573d6000803e3d6000fd5b505050506040513d6000823e601f3d908101601f191682016040526107e59190810190612b99565b80519091506001600160a01b03166108305760405162461bcd60e51b815260206004820152600e60248201526d141b1bdd081b9bdd08199bdd5b9960921b60448201526064016104bd565b8060e00151841115801561084957508061010001518311155b6108955760405162461bcd60e51b815260206004820152601f60248201527f4672616374696f6e206578636565647320617661696c61626c6520617265610060448201526064016104bd565b6108a3600880546001019055565b60006108ae60085490565b905060006040518061010001604052808381526020016002808111156108d6576108d66125c9565b81526020018460400151815260200188815260200187815260200186815260200185815260200142815250905061090e82828661161a565b600c8760405161091e9190612b43565b9081526040519081900360209081018220805460018101825560009182529190200183905560095463c6b0c22f60e01b82526001600160a01b03169063c6b0c22f90610972908a908a908a90600401612bcd565b600060405180830381600087803b15801561098c57600080fd5b505af11580156109a0573d6000803e3d6000fd5b5050505050505050505050565b6109b73382611834565b6109d35760405162461bcd60e51b81526004016104bd90612bf2565b6107628383836118b3565b600a60205260009081526040902080546001820154600283018054929360ff90921692610a0a90612b5f565b80601f0160208091040260200160405190810160405280929190818152602001828054610a3690612b5f565b8015610a835780601f10610a5857610100808354040283529160200191610a83565b820191906000526020600020905b815481529060010190602001808311610a6657829003601f168201915b505050505090806003018054610a9890612b5f565b80601f0160208091040260200160405190810160405280929190818152602001828054610ac490612b5f565b8015610b115780601f10610ae657610100808354040283529160200191610b11565b820191906000526020600020905b815481529060010190602001808311610af457829003601f168201915b5050505050908060040154908060050154908060070154905087565b60606000600c83604051610b419190612b43565b9081526040805191829003602090810183208054808302850183019093528284529190830182828015610b9357602002820191906000526020600020905b815481526020019060010190808311610b7f575b50505050509050600081516001600160401b03811115610bb557610bb5612239565b604051908082528060200260200182016040528015610bee57816020015b610bdb612179565b815260200190600190039081610bd35790505b50905060005b8251811015610e4c57600a6000848381518110610c1357610c13612c3f565b6020026020010151815260200190815260200160002060405180610100016040529081600082015481526020016001820160009054906101000a900460ff166002811115610c6357610c636125c9565b6002811115610c7457610c746125c9565b8152602001600282018054610c8890612b5f565b80601f0160208091040260200160405190810160405280929190818152602001828054610cb490612b5f565b8015610d015780601f10610cd657610100808354040283529160200191610d01565b820191906000526020600020905b815481529060010190602001808311610ce457829003601f168201915b50505050508152602001600382018054610d1a90612b5f565b80601f0160208091040260200160405190810160405280929190818152602001828054610d4690612b5f565b8015610d935780601f10610d6857610100808354040283529160200191610d93565b820191906000526020600020905b815481529060010190602001808311610d7657829003601f168201915b50505050508152602001600482015481526020016005820154815260200160068201805480602002602001604051908101604052809291908181526020018280548015610e0957602002820191906000526020600020905b81546001600160a01b03168152600190910190602001808311610deb575b50505050508152602001600782015481525050828281518110610e2e57610e2e612c3f565b60200260200101819052508080610e4490612c55565b915050610bf4565b509392505050565b6107628383836040518060200160405280600081525061105f565b8151602081840181018051600b825292820191850191909120919052805482908110610e9a57600080fd5b90600052602060002001600091509150505481565b6000818152600260205260408120546001600160a01b0316806105935760405162461bcd60e51b8152602060048201526018602482015277115490cdcc8c4e881a5b9d985b1a59081d1bdad95b88125160421b60448201526064016104bd565b60006001600160a01b038216610f795760405162461bcd60e51b815260206004820152602960248201527f4552433732313a2061646472657373207a65726f206973206e6f7420612076616044820152683634b21037bbb732b960b91b60648201526084016104bd565b506001600160a01b031660009081526003602052604090205490565b610f9d6115c0565b610fa76000611a17565b565b6060600180546105a890612b5f565b610fc3338383611a69565b5050565b610fd13383611834565b61101d5760405162461bcd60e51b815260206004820181905260248201527f43616c6c6572206973206e6f74206f776e6572206e6f7220617070726f76656460448201526064016104bd565b6000918252600a6020908152604083206006018054600181018255908452922090910180546001600160a01b0319166001600160a01b03909216919091179055565b6110693383611834565b6110855760405162461bcd60e51b81526004016104bd90612bf2565b61109184848484611b37565b50505050565b61109f6115c0565b600954604051634d0960fd60e11b81526000916001600160a01b031690639a12c1fa906110d09086906004016124ba565b600060405180830381865afa1580156110ed573d6000803e3d6000fd5b505050506040513d6000823e601f3d908101601f191682016040526111159190810190612b99565b80519091506001600160a01b03166111605760405162461bcd60e51b815260206004820152600e60248201526d141b1bdd081b9bdd08199bdd5b9960921b60448201526064016104bd565b61116e600880546001019055565b600061117960085490565b90506000604051806101000160405280838152602001600160028111156111a2576111a26125c9565b8152602001846040015181526020018681526020018460a0015181526020018460c0015181526020018581526020014281525090506111e282828661161a565b600c8560405161055d9190612b43565b8151602081840181018051600c825292820191850191909120919052805482908110610e9a57600080fd5b606061059382611b6a565b60606000600b8360405161123c9190612b43565b908152604080519182900360209081018320805480830285018301909352828452919083018282801561128e57602002820191906000526020600020905b81548152602001906001019080831161127a575b50505050509050600081516001600160401b038111156112b0576112b0612239565b6040519080825280602002602001820160405280156112e957816020015b6112d6612179565b8152602001906001900390816112ce5790505b50905060005b8251811015610e4c57600a600084838151811061130e5761130e612c3f565b6020026020010151815260200190815260200160002060405180610100016040529081600082015481526020016001820160009054906101000a900460ff16600281111561135e5761135e6125c9565b600281111561136f5761136f6125c9565b815260200160028201805461138390612b5f565b80601f01602080910402602001604051908101604052809291908181526020018280546113af90612b5f565b80156113fc5780601f106113d1576101008083540402835291602001916113fc565b820191906000526020600020905b8154815290600101906020018083116113df57829003601f168201915b5050505050815260200160038201805461141590612b5f565b80601f016020809104026020016040519081016040528092919081815260200182805461144190612b5f565b801561148e5780601f106114635761010080835404028352916020019161148e565b820191906000526020600020905b81548152906001019060200180831161147157829003601f168201915b5050505050815260200160048201548152602001600582015481526020016006820180548060200260200160405190810160405280929190818152602001828054801561150457602002820191906000526020600020905b81546001600160a01b031681526001909101906020018083116114e6575b5050505050815260200160078201548152505082828151811061152957611529612c3f565b6020026020010181905250808061153f90612c55565b9150506112ef565b61154f6115c0565b6001600160a01b0381166115b45760405162461bcd60e51b815260206004820152602660248201527f4f776e61626c653a206e6577206f776e657220697320746865207a65726f206160448201526564647265737360d01b60648201526084016104bd565b6115bd81611a17565b50565b6007546001600160a01b03163314610fa75760405162461bcd60e51b815260206004820181905260248201527f4f776e61626c653a2063616c6c6572206973206e6f7420746865206f776e657260448201526064016104bd565b6000838152600a602090815260409091208351815590830151600180830180548694939260ff1990911690836002811115611657576116576125c9565b0217905550604082015160028201906116709082612cca565b50606082015160038201906116859082612cca565b506080820151600482015560a0820151600582015560c082015180516116b59160068401916020909101906121bf565b5060e082015181600701559050506116e7816000815181106116d9576116d9612c3f565b602002602001015184611c72565b827f7dc852bfea4a68bc3a09c8134e96f29ce8961b38c68d5f0fef957ceef324582383602001518460400151856060015186608001518760a001518760405161173596959493929190612d89565b60405180910390a2505050565b60006001600160e01b03198216632483248360e11b1480610593575061059382611c8c565b6000818152600260205260409020546001600160a01b03166115bd5760405162461bcd60e51b8152602060048201526018602482015277115490cdcc8c4e881a5b9d985b1a59081d1bdad95b88125160421b60448201526064016104bd565b600081815260046020526040902080546001600160a01b0319166001600160a01b03841690811790915581906117fb82610eaf565b6001600160a01b03167f8c5be1e5ebec7d5bd14f71427d1e84f3dd0314c0f7b2291e5b200ac8c7c3b92560405160405180910390a45050565b60008061184083610eaf565b9050806001600160a01b0316846001600160a01b0316148061188757506001600160a01b0380821660009081526005602090815260408083209388168352929052205460ff165b806118ab5750836001600160a01b03166118a08461062b565b6001600160a01b0316145b949350505050565b826001600160a01b03166118c682610eaf565b6001600160a01b0316146118ec5760405162461bcd60e51b81526004016104bd90612de8565b6001600160a01b03821661194e5760405162461bcd60e51b8152602060048201526024808201527f4552433732313a207472616e7366657220746f20746865207a65726f206164646044820152637265737360e01b60648201526084016104bd565b826001600160a01b031661196182610eaf565b6001600160a01b0316146119875760405162461bcd60e51b81526004016104bd90612de8565b600081815260046020908152604080832080546001600160a01b03199081169091556001600160a01b0387811680865260038552838620805460001901905590871680865283862080546001019055868652600290945282852080549092168417909155905184937fddf252ad1be2c89b69c2b068fc378daa952ba7f163c4a11628f55a4df523b3ef91a4505050565b600780546001600160a01b038381166001600160a01b0319831681179093556040519116919082907f8be0079c531659141344cd1fd0a4f28419497f9722a3daafe3b4186f6b6457e090600090a35050565b816001600160a01b0316836001600160a01b031603611aca5760405162461bcd60e51b815260206004820152601960248201527f4552433732313a20617070726f766520746f2063616c6c65720000000000000060448201526064016104bd565b6001600160a01b03838116600081815260056020908152604080832094871680845294825291829020805460ff191686151590811790915591519182527f17307eab39ab6107e8899845ad3d59bd9653f200f220920489ca2b5937696c31910160405180910390a3505050565b611b428484846118b3565b611b4e84848484611cdc565b6110915760405162461bcd60e51b81526004016104bd90612e2d565b6060611b7582611767565b60008281526006602052604081208054611b8e90612b5f565b80601f0160208091040260200160405190810160405280929190818152602001828054611bba90612b5f565b8015611c075780601f10611bdc57610100808354040283529160200191611c07565b820191906000526020600020905b815481529060010190602001808311611bea57829003601f168201915b505050505090506000611c2560408051602081019091526000815290565b90508051600003611c37575092915050565b815115611c69578082604051602001611c51929190612e7f565b60405160208183030381529060405292505050919050565b6118ab84611ddd565b610fc3828260405180602001604052806000815250611e51565b60006001600160e01b031982166380ac58cd60e01b1480611cbd57506001600160e01b03198216635b5e139f60e01b145b8061059357506301ffc9a760e01b6001600160e01b0319831614610593565b60006001600160a01b0384163b15611dd257604051630a85bd0160e11b81526001600160a01b0385169063150b7a0290611d20903390899088908890600401612eae565b6020604051808303816000875af1925050508015611d5b575060408051601f3d908101601f19168201909252611d5891810190612eeb565b60015b611db8573d808015611d89576040519150601f19603f3d011682016040523d82523d6000602084013e611d8e565b606091505b508051600003611db05760405162461bcd60e51b81526004016104bd90612e2d565b805181602001fd5b6001600160e01b031916630a85bd0160e11b1490506118ab565b506001949350505050565b6060611de882611767565b6000611dff60408051602081019091526000815290565b90506000815111611e1f5760405180602001604052806000815250611e4a565b80611e2984611e84565b604051602001611e3a929190612e7f565b6040516020818303038152906040525b9392505050565b611e5b8383611f16565b611e686000848484611cdc565b6107625760405162461bcd60e51b81526004016104bd90612e2d565b60606000611e91836120a1565b60010190506000816001600160401b03811115611eb057611eb0612239565b6040519080825280601f01601f191660200182016040528015611eda576020820181803683370190505b5090508181016020015b600019016f181899199a1a9b1b9c1cb0b131b232b360811b600a86061a8153600a8504945084611ee457509392505050565b6001600160a01b038216611f6c5760405162461bcd60e51b815260206004820181905260248201527f4552433732313a206d696e7420746f20746865207a65726f206164647265737360448201526064016104bd565b6000818152600260205260409020546001600160a01b031615611fd15760405162461bcd60e51b815260206004820152601c60248201527f4552433732313a20746f6b656e20616c7265616479206d696e7465640000000060448201526064016104bd565b6000818152600260205260409020546001600160a01b0316156120365760405162461bcd60e51b815260206004820152601c60248201527f4552433732313a20746f6b656e20616c7265616479206d696e7465640000000060448201526064016104bd565b6001600160a01b038216600081815260036020908152604080832080546001019055848352600290915280822080546001600160a01b0319168417905551839291907fddf252ad1be2c89b69c2b068fc378daa952ba7f163c4a11628f55a4df523b3ef908290a45050565b60008072184f03e93ff9f4daa797ed6e38ed64bf6a1f0160401b83106120e05772184f03e93ff9f4daa797ed6e38ed64bf6a1f0160401b830492506040015b6d04ee2d6d415b85acef8100000000831061210c576d04ee2d6d415b85acef8100000000830492506020015b662386f26fc10000831061212a57662386f26fc10000830492506010015b6305f5e1008310612142576305f5e100830492506008015b612710831061215657612710830492506004015b60648310612168576064830492506002015b600a83106105935760010192915050565b6040805161010081019091526000808252602082019081526020016060815260200160608152602001600081526020016000815260200160608152602001600081525090565b828054828255906000526020600020908101928215612214579160200282015b8281111561221457825182546001600160a01b0319166001600160a01b039091161782556020909201916001909101906121df565b50612220929150612224565b5090565b5b808211156122205760008155600101612225565b634e487b7160e01b600052604160045260246000fd5b60405161016081016001600160401b038111828210171561227257612272612239565b60405290565b604051601f8201601f191681016001600160401b03811182821017156122a0576122a0612239565b604052919050565b60006001600160401b038211156122c1576122c1612239565b50601f01601f191660200190565b60006122e26122dd846122a8565b612278565b90508281528383830111156122f657600080fd5b828260208301376000602084830101529392505050565b600082601f83011261231e57600080fd5b611e4a838335602085016122cf565b60006001600160401b0382111561234657612346612239565b5060051b60200190565b6001600160a01b03811681146115bd57600080fd5b600082601f83011261237657600080fd5b813560206123866122dd8361232d565b82815260059290921b840181019181810190868411156123a557600080fd5b8286015b848110156123c95780356123bc81612350565b83529183019183016123a9565b509695505050505050565b600080604083850312156123e757600080fd5b82356001600160401b03808211156123fe57600080fd5b61240a8683870161230d565b9350602085013591508082111561242057600080fd5b5061242d85828601612365565b9150509250929050565b6001600160e01b0319811681146115bd57600080fd5b60006020828403121561245f57600080fd5b8135611e4a81612437565b60005b8381101561248557818101518382015260200161246d565b50506000910152565b600081518084526124a681602086016020860161246a565b601f01601f19169290920160200192915050565b602081526000611e4a602083018461248e565b6000602082840312156124df57600080fd5b5035919050565b600080604083850312156124f957600080fd5b823561250481612350565b946020939093013593505050565b6000806000806080858703121561252857600080fd5b84356001600160401b038082111561253f57600080fd5b61254b8883890161230d565b95506020870135945060408701359350606087013591508082111561256f57600080fd5b5061257c87828801612365565b91505092959194509250565b60008060006060848603121561259d57600080fd5b83356125a881612350565b925060208401356125b881612350565b929592945050506040919091013590565b634e487b7160e01b600052602160045260246000fd5b600381106125fd57634e487b7160e01b600052602160045260246000fd5b9052565b87815261261160208201886125df565b60e06040820152600061262760e083018861248e565b8281036060840152612639818861248e565b6080840196909652505060a081019290925260c090910152949350505050565b60006020828403121561266b57600080fd5b81356001600160401b0381111561268157600080fd5b6118ab8482850161230d565b600081518084526020808501945080840160005b838110156126c65781516001600160a01b0316875295820195908201906001016126a1565b509495945050505050565b60006020808301818452808551808352604092508286019150828160051b87010184880160005b838110156127a557603f19898403018552815161010081518552888201516127228a8701826125df565b508782015181898701526127388287018261248e565b91505060608083015186830382880152612752838261248e565b92505050608080830151818701525060a080830151818701525060c08083015186830382880152612783838261268d565b60e09485015197909401969096525050948701949250908601906001016126f8565b509098975050505050505050565b600080604083850312156127c657600080fd5b82356001600160401b038111156127dc57600080fd5b6127e88582860161230d565b95602094909401359450505050565b60006020828403121561280957600080fd5b8135611e4a81612350565b80151581146115bd57600080fd5b6000806040838503121561283557600080fd5b823561284081612350565b9150602083013561285081612814565b809150509250929050565b6000806040838503121561286e57600080fd5b82359150602083013561285081612350565b6000806000806080858703121561289657600080fd5b84356128a181612350565b935060208501356128b181612350565b92506040850135915060608501356001600160401b038111156128d357600080fd5b8501601f810187136128e457600080fd5b61257c878235602084016122cf565b6000806040838503121561290657600080fd5b823561291181612350565b9150602083013561285081612350565b805161292c81612350565b919050565b600082601f83011261294257600080fd5b81516129506122dd826122a8565b81815284602083860101111561296557600080fd5b6118ab82602083016020870161246a565b805161292c81612814565b6000610160828403121561299457600080fd5b61299c61224f565b90506129a782612921565b815260208201516001600160401b03808211156129c357600080fd5b6129cf85838601612931565b602084015260408401519150808211156129e857600080fd5b6129f485838601612931565b60408401526060840151915080821115612a0d57600080fd5b612a1985838601612931565b60608401526080840151915080821115612a3257600080fd5b50612a3f84828501612931565b60808301525060a082015160a082015260c082015160c082015260e082015160e0820152610100808301518183015250610120808301518183015250610140612a89818401612976565b9082015292915050565b60006020808385031215612aa657600080fd5b82516001600160401b0380821115612abd57600080fd5b818501915085601f830112612ad157600080fd5b8151612adf6122dd8261232d565b81815260059190911b83018401908481019088831115612afe57600080fd5b8585015b83811015612b3657805185811115612b1a5760008081fd5b612b288b89838a0101612981565b845250918601918601612b02565b5098975050505050505050565b60008251612b5581846020870161246a565b9190910192915050565b600181811c90821680612b7357607f821691505b602082108103612b9357634e487b7160e01b600052602260045260246000fd5b50919050565b600060208284031215612bab57600080fd5b81516001600160401b03811115612bc157600080fd5b6118ab84828501612981565b606081526000612be0606083018661248e565b60208301949094525060400152919050565b6020808252602d908201527f4552433732313a2063616c6c6572206973206e6f7420746f6b656e206f776e6560408201526c1c881bdc88185c1c1c9bdd9959609a1b606082015260800190565b634e487b7160e01b600052603260045260246000fd5b600060018201612c7557634e487b7160e01b600052601160045260246000fd5b5060010190565b601f82111561076257600081815260208120601f850160051c81016020861015612ca35750805b601f850160051c820191505b81811015612cc257828155600101612caf565b505050505050565b81516001600160401b03811115612ce357612ce3612239565b612cf781612cf18454612b5f565b84612c7c565b602080601f831160018114612d2c5760008415612d145750858301515b600019600386901b1c1916600185901b178555612cc2565b600085815260208120601f198616915b82811015612d5b57888601518255948401946001909101908401612d3c565b5085821015612d795787850151600019600388901b60f8161c191681555b5050505050600190811b01905550565b612d9381886125df565b60c060208201526000612da960c083018861248e565b8281036040840152612dbb818861248e565b905085606084015284608084015282810360a0840152612ddb818561268d565b9998505050505050505050565b60208082526025908201527f4552433732313a207472616e736665722066726f6d20696e636f72726563742060408201526437bbb732b960d91b606082015260800190565b60208082526032908201527f4552433732313a207472616e7366657220746f206e6f6e20455243373231526560408201527131b2b4bb32b91034b6b83632b6b2b73a32b960711b606082015260800190565b60008351612e9181846020880161246a565b835190830190612ea581836020880161246a565b01949350505050565b6001600160a01b0385811682528416602082015260408101839052608060608201819052600090612ee19083018461248e565b9695505050505050565b600060208284031215612efd57600080fd5b8151611e4a8161243756fea2646970667358221220955a3e50170bd84708986a025bdf8d4af50f1d3ded1d0a4a367745cf711eb93464736f6c63430008140033",
  "devdoc": {
    "events": {
      "Approval(address,address,uint256)": {
        "details": "Emitted when `owner` enables `approved` to manage the `tokenId` token."
      },
      "ApprovalForAll(address,address,bool)": {
        "details": "Emitted when `owner` enables or disables (`approved`) `operator` to manage all of its assets."
      },
      "BatchMetadataUpdate(uint256,uint256)": {
        "details": "This event emits when the metadata of a range of tokens is changed. So that the third-party platforms such as NFT market could timely update the images and related attributes of the NFTs."
      },
      "MetadataUpdate(uint256)": {
        "details": "This event emits when the metadata of a token is changed. So that the third-party platforms such as NFT market could timely update the images and related attributes of the NFT."
      },
      "Transfer(address,address,uint256)": {
        "details": "Emitted when `tokenId` token is transferred from `from` to `to`."
      }
    },
    "kind": "dev",
    "methods": {
      "approve(address,uint256)": {
        "details": "See {IERC721-approve}."
      },
      "balanceOf(address)": {
        "details": "See {IERC721-balanceOf}."
      },
      "getApproved(uint256)": {
        "details": "See {IERC721-getApproved}."
      },
      "isApprovedForAll(address,address)": {
        "details": "See {IERC721-isApprovedForAll}."
      },
      "name()": {
        "details": "See {IERC721Metadata-name}."
      },
      "owner()": {
        "details": "Returns the address of the current owner."
      },
      "ownerOf(uint256)": {
        "details": "See {IERC721-ownerOf}."
      },
      "renounceOwnership()": {
        "details": "Leaves the contract without owner. It will not be possible to call `onlyOwner` functions. Can only be called by the current owner. NOTE: Renouncing ownership will leave the contract without an owner, thereby disabling any functionality that is only available to the owner."
      },
      "safeTransferFrom(address,address,uint256)": {
        "details": "See {IERC721-safeTransferFrom}."
      },
      "safeTransferFrom(address,address,uint256,bytes)": {
        "details": "See {IERC721-safeTransferFrom}."
      },
      "setApprovalForAll(address,bool)": {
        "details": "See {IERC721-setApprovalForAll}."
      },
      "symbol()": {
        "details": "See {IERC721Metadata-symbol}."
      },
      "transferFrom(address,address,uint256)": {
        "details": "See {IERC721-transferFrom}."
      },
      "transferOwnership(address)": {
        "details": "Transfers ownership of the contract to a new account (`newOwner`). Can only be called by the current owner."
      }
    },
    "version": 1
  },
  "userdoc": {
    "kind": "user",
    "methods": {},
    "version": 1
  },
  "storageLayout": {
    "storage": [
      {
        "astId": 166,
        "contract": "contracts/LandNFT.sol:LandNFT",
        "label": "_name",
        "offset": 0,
        "slot": "0",
        "type": "t_string_storage"
      },
      {
        "astId": 168,
        "contract": "contracts/LandNFT.sol:LandNFT",
        "label": "_symbol",
        "offset": 0,
        "slot": "1",
        "type": "t_string_storage"
      },
      {
        "astId": 172,
        "contract": "contracts/LandNFT.sol:LandNFT",
        "label": "_owners",
        "offset": 0,
        "slot": "2",
        "type": "t_mapping(t_uint256,t_address)"
      },
      {
        "astId": 176,
        "contract": "contracts/LandNFT.sol:LandNFT",
        "label": "_balances",
        "offset": 0,
        "slot": "3",
        "type": "t_mapping(t_address,t_uint256)"
      },
      {
        "astId": 180,
        "contract": "contracts/LandNFT.sol:LandNFT",
        "label": "_tokenApprovals",
        "offset": 0,
        "slot": "4",
        "type": "t_mapping(t_uint256,t_address)"
      },
      {
        "astId": 186,
        "contract": "contracts/LandNFT.sol:LandNFT",
        "label": "_operatorApprovals",
        "offset": 0,
        "slot": "5",
        "type": "t_mapping(t_address,t_mapping(t_address,t_bool))"
      },
      {
        "astId": 1217,
        "contract": "contracts/LandNFT.sol:LandNFT",
        "label": "_tokenURIs",
        "offset": 0,
        "slot": "6",
        "type": "t_mapping(t_uint256,t_string_storage)"
      },
      {
        "astId": 7,
        "contract": "contracts/LandNFT.sol:LandNFT",
        "label": "_owner",
        "offset": 0,
        "slot": "7",
        "type": "t_address"
      },
      {
        "astId": 3066,
        "contract": "contracts/LandNFT.sol:LandNFT",
        "label": "_tokenIdCounter",
        "offset": 0,
        "slot": "8",
        "type": "t_struct(Counter)1742_storage"
      },
      {
        "astId": 3069,
        "contract": "contracts/LandNFT.sol:LandNFT",
        "label": "landRegistry",
        "offset": 0,
        "slot": "9",
        "type": "t_contract(LandRegistry)4150"
      },
      {
        "astId": 3097,
        "contract": "contracts/LandNFT.sol:LandNFT",
        "label": "landTokens",
        "offset": 0,
        "slot": "10",
        "type": "t_mapping(t_uint256,t_struct(LandToken)3092_storage)"
      },
      {
        "astId": 3102,
        "contract": "contracts/LandNFT.sol:LandNFT",
        "label": "tokenIdsByThram",
        "offset": 0,
        "slot": "11",
        "type": "t_mapping(t_string_memory_ptr,t_array(t_uint256)dyn_storage)"
      },
      {
        "astId": 3107,
        "contract": "contracts/LandNFT.sol:LandNFT",
        "label": "tokenIdsByPlot",
        "offset": 0,
        "slot": "12",
        "type": "t_mapping(t_string_memory_ptr,t_array(t_uint256)dyn_storage)"
      }
    ],
    "types": {
      "t_address": {
        "encoding": "inplace",
        "label": "address",
        "numberOfBytes": "20"
      },
      "t_array(t_address)dyn_storage": {
        "base": "t_address",
        "encoding": "dynamic_array",
        "label": "address[]",
        "numberOfBytes": "32"
      },
      "t_array(t_uint256)dyn_storage": {
        "base": "t_uint256",
        "encoding": "dynamic_array",
        "label": "uint256[]",
        "numberOfBytes": "32"
      },
      "t_bool": {
        "encoding": "inplace",
        "label": "bool",
        "numberOfBytes": "1"
      },
      "t_contract(LandRegistry)4150": {
        "encoding": "inplace",
        "label": "contract LandRegistry",
        "numberOfBytes": "20"
      },
      "t_enum(TokenType)3073": {
        "encoding": "inplace",
        "label": "enum LandNFT.TokenType",
        "numberOfBytes": "1"
      },
      "t_mapping(t_address,t_bool)": {
        "encoding": "mapping",
        "key": "t_address",
        "label": "mapping(address => bool)",
        "numberOfBytes": "32",
        "value": "t_bool"
      },
      "t_mapping(t_address,t_mapping(t_address,t_bool))": {
        "encoding": "mapping",
        "key": "t_address",
        "label": "mapping(address => mapping(address => bool))",
        "numberOfBytes": "32",
        "value": "t_mapping(t_address,t_bool)"
      },
      "t_mapping(t_address,t_uint256)": {
        "encoding": "mapping",
        "key": "t_address",
        "label": "mapping(address => uint256)",
        "numberOfBytes": "32",
        "value": "t_uint256"
      },
      "t_mapping(t_string_memory_ptr,t_array(t_uint256)dyn_storage)": {
        "encoding": "mapping",
        "key": "t_string_memory_ptr",
        "label": "mapping(string => uint256[])",
        "numberOfBytes": "32",
        "value": "t_array(t_uint256)dyn_storage"
      },
      "t_mapping(t_uint256,t_address)": {
        "encoding": "mapping",
        "key": "t_uint256",
        "label": "mapping(uint256 => address)",
        "numberOfBytes": "32",
        "value": "t_address"
      },
      "t_mapping(t_uint256,t_string_storage)": {
        "encoding": "mapping",
        "key": "t_uint256",
        "label": "mapping(uint256 => string)",
        "numberOfBytes": "32",
        "value": "t_string_storage"
      },
      "t_mapping(t_uint256,t_struct(LandToken)3092_storage)": {
        "encoding": "mapping",
        "key": "t_uint256",
        "label": "mapping(uint256 => struct LandNFT.LandToken)",
        "numberOfBytes": "32",
        "value": "t_struct(LandToken)3092_storage"
      },
      "t_string_memory_ptr": {
        "encoding": "bytes",
        "label": "string",
        "numberOfBytes": "32"
      },
      "t_string_storage": {
        "encoding": "bytes",
        "label": "string",
        "numberOfBytes": "32"
      },
      "t_struct(Counter)1742_storage": {
        "encoding": "inplace",
        "label": "struct Counters.Counter",
        "members": [
          {
            "astId": 1741,
            "contract": "contracts/LandNFT.sol:LandNFT",
            "label": "_value",
            "offset": 0,
            "slot": "0",
            "type": "t_uint256"
          }
        ],
        "numberOfBytes": "32"
      },
      "t_struct(LandToken)3092_storage": {
        "encoding": "inplace",
        "label": "struct LandNFT.LandToken",
        "members": [
          {
            "astId": 3075,
            "contract": "contracts/LandNFT.sol:LandNFT",
            "label": "tokenId",
            "offset": 0,
            "slot": "0",
            "type": "t_uint256"
          },
          {
            "astId": 3078,
            "contract": "contracts/LandNFT.sol:LandNFT",
            "label": "tokenType",
            "offset": 0,
            "slot": "1",
            "type": "t_enum(TokenType)3073"
          },
          {
            "astId": 3080,
            "contract": "contracts/LandNFT.sol:LandNFT",
            "label": "thramNumber",
            "offset": 0,
            "slot": "2",
            "type": "t_string_storage"
          },
          {
            "astId": 3082,
            "contract": "contracts/LandNFT.sol:LandNFT",
            "label": "plotNumber",
            "offset": 0,
            "slot": "3",
            "type": "t_string_storage"
          },
          {
            "astId": 3084,
            "contract": "contracts/LandNFT.sol:LandNFT",
            "label": "acres",
            "offset": 0,
            "slot": "4",
            "type": "t_uint256"
          },
          {
            "astId": 3086,
            "contract": "contracts/LandNFT.sol:LandNFT",
            "label": "decimals",
            "offset": 0,
            "slot": "5",
            "type": "t_uint256"
          },
          {
            "astId": 3089,
            "contract": "contracts/LandNFT.sol:LandNFT",
            "label": "owners",
            "offset": 0,
            "slot": "6",
            "type": "t_array(t_address)dyn_storage"
          },
          {
            "astId": 3091,
            "contract": "contracts/LandNFT.sol:LandNFT",
            "label": "creationTime",
            "offset": 0,
            "slot": "7",
            "type": "t_uint256"
          }
        ],
        "numberOfBytes": "256"
      },
      "t_uint256": {
        "encoding": "inplace",
        "label": "uint256",
        "numberOfBytes": "32"
      }
    }
  }
}